{
  "abi": [
    {
      "inputs": [
        {
          "internalType": "contract IEntryPoint",
          "name": "_entryPoint",
          "type": "address"
        }
      ],
      "stateMutability": "nonpayable",
      "type": "constructor"
    },
    {
      "inputs": [],
      "name": "accountImplementation",
      "outputs": [
        {
          "internalType": "contract SimpleAccount",
          "name": "",
          "type": "address"
        }
      ],
      "stateMutability": "view",
      "type": "function"
    },
    {
      "inputs": [
        {
          "internalType": "address",
          "name": "owner",
          "type": "address"
        },
        {
          "internalType": "uint256",
          "name": "salt",
          "type": "uint256"
        }
      ],
      "name": "createAccount",
      "outputs": [
        {
          "internalType": "contract SimpleAccount",
          "name": "ret",
          "type": "address"
        }
      ],
      "stateMutability": "nonpayable",
      "type": "function"
    },
    {
      "inputs": [
        {
          "internalType": "address",
          "name": "owner",
          "type": "address"
        },
        {
          "internalType": "uint256",
          "name": "salt",
          "type": "uint256"
        }
      ],
      "name": "getAddress",
      "outputs": [
        {
          "internalType": "address",
          "name": "",
          "type": "address"
        }
      ],
      "stateMutability": "view",
      "type": "function"
    }
  ],
  "bytecode": {
    "object": "0x60a060405234801561001057600080fd5b50604051612a17380380612a1783398101604081905261002f91610088565b8060405161003c9061007b565b6001600160a01b039091168152602001604051809103906000f080158015610068573d6000803e3d6000fd5b506001600160a01b0316608052506100b8565b611e7980610b9e83390190565b60006020828403121561009a57600080fd5b81516001600160a01b03811681146100b157600080fd5b9392505050565b608051610abf6100df60003960008181604b0152818160ed01526101ba0152610abf6000f3fe608060405234801561001057600080fd5b50600436106100415760003560e01c806311464fbe146100465780635fbfb9cf146100895780638cb84e181461009c575b600080fd5b61006d7f000000000000000000000000000000000000000000000000000000000000000081565b6040516001600160a01b03909116815260200160405180910390f35b61006d610097366004610295565b6100af565b61006d6100aa366004610295565b61017b565b6000806100bc848461017b565b90506001600160a01b0381163b80156100d757509050610175565b6040516001600160a01b038616602482015284907f00000000000000000000000000000000000000000000000000000000000000009060440160408051601f198184030181529181526020820180516001600160e01b031663189acdbd60e31b1790525161014490610288565b61014f9291906102f1565b8190604051809103906000f590508015801561016f573d6000803e3d6000fd5b50925050505b92915050565b600061024f8260001b6040518060200161019490610288565b601f1982820381018352601f9091011660408190526001600160a01b03871660248201527f00000000000000000000000000000000000000000000000000000000000000009060440160408051601f19818403018152918152602080830180516001600160e01b031663189acdbd60e31b1790529051610216939291016102f1565b60408051601f19818403018152908290526102349291602001610333565b60405160208183030381529060405280519060200120610256565b9392505050565b600061024f8383306000604051836040820152846020820152828152600b8101905060ff815360559020949350505050565b6107278061036383390190565b600080604083850312156102a857600080fd5b82356001600160a01b03811681146102bf57600080fd5b946020939093013593505050565b60005b838110156102e85781810151838201526020016102d0565b50506000910152565b60018060a01b0383168152604060208201526000825180604084015261031e8160608501602087016102cd565b601f01601f1916919091016060019392505050565b600083516103458184602088016102cd565b8351908301906103598183602088016102cd565b0194935050505056fe608060405260405161072738038061072783398101604081905261002291610319565b61002e82826000610035565b5050610436565b61003e8361006b565b60008251118061004b5750805b156100665761006483836100ab60201b6100291760201c565b505b505050565b610074816100d7565b6040516001600160a01b038216907fbc7cd75a20ee27fd9adebab32041f755214dbc6bffa90cc0225b39da2e5c2d3b90600090a250565b60606100d08383604051806060016040528060278152602001610700602791396101a9565b9392505050565b6100ea8161022260201b6100551760201c565b6101515760405162461bcd60e51b815260206004820152602d60248201527f455243313936373a206e657720696d706c656d656e746174696f6e206973206e60448201526c1bdd08184818dbdb9d1c9858dd609a1b60648201526084015b60405180910390fd5b806101887f360894a13ba1a3210667c828492db98dca3e2076cc3735a920a3ca505d382bbc60001b61023160201b6100641760201c565b80546001600160a01b0319166001600160a01b039290921691909117905550565b6060600080856001600160a01b0316856040516101c691906103e7565b600060405180830381855af49150503d8060008114610201576040519150601f19603f3d011682016040523d82523d6000602084013e610206565b606091505b50909250905061021886838387610234565b9695505050505050565b6001600160a01b03163b151590565b90565b606083156102a357825160000361029c576001600160a01b0385163b61029c5760405162461bcd60e51b815260206004820152601d60248201527f416464726573733a2063616c6c20746f206e6f6e2d636f6e74726163740000006044820152606401610148565b50816102ad565b6102ad83836102b5565b949350505050565b8151156102c55781518083602001fd5b8060405162461bcd60e51b81526004016101489190610403565b634e487b7160e01b600052604160045260246000fd5b60005b838110156103105781810151838201526020016102f8565b50506000910152565b6000806040838503121561032c57600080fd5b82516001600160a01b038116811461034357600080fd5b60208401519092506001600160401b038082111561036057600080fd5b818501915085601f83011261037457600080fd5b815181811115610386576103866102df565b604051601f8201601f19908116603f011681019083821181831017156103ae576103ae6102df565b816040528281528860208487010111156103c757600080fd5b6103d88360208301602088016102f5565b80955050505050509250929050565b600082516103f98184602087016102f5565b9190910192915050565b60208152600082518060208401526104228160408501602087016102f5565b601f01601f19169190910160400192915050565b6102bb806104456000396000f3fe60806040523661001357610011610017565b005b6100115b610027610022610067565b61009f565b565b606061004e838360405180606001604052806027815260200161025f602791396100c3565b9392505050565b6001600160a01b03163b151590565b90565b600061009a7f360894a13ba1a3210667c828492db98dca3e2076cc3735a920a3ca505d382bbc546001600160a01b031690565b905090565b3660008037600080366000845af43d6000803e8080156100be573d6000f35b3d6000fd5b6060600080856001600160a01b0316856040516100e0919061020f565b600060405180830381855af49150503d806000811461011b576040519150601f19603f3d011682016040523d82523d6000602084013e610120565b606091505b50915091506101318683838761013b565b9695505050505050565b606083156101af5782516000036101a8576001600160a01b0385163b6101a85760405162461bcd60e51b815260206004820152601d60248201527f416464726573733a2063616c6c20746f206e6f6e2d636f6e747261637400000060448201526064015b60405180910390fd5b50816101b9565b6101b983836101c1565b949350505050565b8151156101d15781518083602001fd5b8060405162461bcd60e51b815260040161019f919061022b565b60005b838110156102065781810151838201526020016101ee565b50506000910152565b600082516102218184602087016101eb565b9190910192915050565b602081526000825180602084015261024a8160408501602087016101eb565b601f01601f1916919091016040019291505056fe416464726573733a206c6f772d6c6576656c2064656c65676174652063616c6c206661696c6564a2646970667358221220b9c80ed6dd7b52505567e4afe68f979cf3749b39065b96e7d9c9f36e60592e2b64736f6c63430008110033416464726573733a206c6f772d6c6576656c2064656c65676174652063616c6c206661696c6564a26469706673582212203ae992fe6dcbcb7597653f89e6d9eb1b916364e2ca2d1398263a54c13f7f7bed64736f6c6343000811003360c0604052306080523480156200001557600080fd5b5060405162001e7938038062001e79833981016040819052620000389162000118565b6001600160a01b03811660a0526200004f62000056565b506200014a565b600054610100900460ff1615620000c35760405162461bcd60e51b815260206004820152602760248201527f496e697469616c697a61626c653a20636f6e747261637420697320696e697469604482015266616c697a696e6760c81b606482015260840160405180910390fd5b60005460ff908116101562000116576000805460ff191660ff9081179091556040519081527f7f26b83ff96e1f2b6a682f133852f6798a09c465da95921460cefb38474024989060200160405180910390a15b565b6000602082840312156200012b57600080fd5b81516001600160a01b03811681146200014357600080fd5b9392505050565b60805160a051611cbc620001bd600039600081816102c4015281816106a20152818161072a0152818161099b01528181610b4501528181610cf701528181610e97015261101901526000818161040a01528181610453015281816107b3015281816107f301526108860152611cbc6000f3fe60806040526004361061010c5760003560e01c806352d1902d11610095578063bc197c8111610064578063bc197c8114610308578063c399ec8814610337578063c4d66de81461034c578063d087d2881461036c578063f23a6e611461038157600080fd5b806352d1902d146102625780638da5cb5b14610277578063b0d691fe146102b5578063b61d27f6146102e857600080fd5b80633a871cdd116100dc5780633a871cdd146101d957806347e1da2a146102075780634a58db19146102275780634d44560d1461022f5780634f1ef2861461024f57600080fd5b806223de291461011857806301ffc9a71461013f578063150b7a02146101745780633659cfe6146101b957600080fd5b3661011357005b600080fd5b34801561012457600080fd5b5061013d610133366004611579565b5050505050505050565b005b34801561014b57600080fd5b5061015f61015a36600461162a565b6103ae565b60405190151581526020015b60405180910390f35b34801561018057600080fd5b506101a061018f366004611654565b630a85bd0160e11b95945050505050565b6040516001600160e01b0319909116815260200161016b565b3480156101c557600080fd5b5061013d6101d43660046116c7565b610400565b3480156101e557600080fd5b506101f96101f43660046116e4565b6104e8565b60405190815260200161016b565b34801561021357600080fd5b5061013d61022236600461177d565b61050e565b61013d6106a0565b34801561023b57600080fd5b5061013d61024a366004611817565b610720565b61013d61025d366004611859565b6107a9565b34801561026e57600080fd5b506101f9610879565b34801561028357600080fd5b5060005461029d906201000090046001600160a01b031681565b6040516001600160a01b03909116815260200161016b565b3480156102c157600080fd5b507f000000000000000000000000000000000000000000000000000000000000000061029d565b3480156102f457600080fd5b5061013d61030336600461191d565b61092c565b34801561031457600080fd5b506101a0610323366004611979565b63bc197c8160e01b98975050505050505050565b34801561034357600080fd5b506101f961097b565b34801561035857600080fd5b5061013d6103673660046116c7565b610a0c565b34801561037857600080fd5b506101f9610b1e565b34801561038d57600080fd5b506101a061039c366004611a17565b63f23a6e6160e01b9695505050505050565b60006001600160e01b03198216630a85bd0160e11b14806103df57506001600160e01b03198216630271189760e51b145b806103fa57506001600160e01b031982166301ffc9a760e01b145b92915050565b6001600160a01b037f00000000000000000000000000000000000000000000000000000000000000001630036104515760405162461bcd60e51b815260040161044890611a81565b60405180910390fd5b7f00000000000000000000000000000000000000000000000000000000000000006001600160a01b031661049a600080516020611c40833981519152546001600160a01b031690565b6001600160a01b0316146104c05760405162461bcd60e51b815260040161044890611acd565b6104c981610b74565b604080516000808252602082019092526104e591839190610b7c565b50565b60006104f2610cec565b6104fc8484610d66565b905061050782610e3f565b9392505050565b610516610e8c565b848114801561052c575082158061052c57508281145b61056e5760405162461bcd60e51b815260206004820152601360248201527277726f6e67206172726179206c656e6774687360681b6044820152606401610448565b60008390036106245760005b8581101561061e5761060c87878381811061059757610597611b19565b90506020020160208101906105ac91906116c7565b60008585858181106105c0576105c0611b19565b90506020028101906105d29190611b2f565b8080601f016020809104026020016040519081016040528093929190818152602001838380828437600092019190915250610f1f92505050565b8061061681611b76565b91505061057a565b50610698565b60005b858110156106965761068487878381811061064457610644611b19565b905060200201602081019061065991906116c7565b86868481811061066b5761066b611b19565b905060200201358585858181106105c0576105c0611b19565b8061068e81611b76565b915050610627565b505b505050505050565b7f000000000000000000000000000000000000000000000000000000000000000060405163b760faf960e01b81523060048201526001600160a01b03919091169063b760faf99034906024016000604051808303818588803b15801561070557600080fd5b505af1158015610719573d6000803e3d6000fd5b5050505050565b610728610f8f565b7f000000000000000000000000000000000000000000000000000000000000000060405163040b850f60e31b81526001600160a01b03848116600483015260248201849052919091169063205c287890604401600060405180830381600087803b15801561079557600080fd5b505af1158015610698573d6000803e3d6000fd5b6001600160a01b037f00000000000000000000000000000000000000000000000000000000000000001630036107f15760405162461bcd60e51b815260040161044890611a81565b7f00000000000000000000000000000000000000000000000000000000000000006001600160a01b031661083a600080516020611c40833981519152546001600160a01b031690565b6001600160a01b0316146108605760405162461bcd60e51b815260040161044890611acd565b61086982610b74565b61087582826001610b7c565b5050565b6000306001600160a01b037f000000000000000000000000000000000000000000000000000000000000000016146109195760405162461bcd60e51b815260206004820152603860248201527f555550535570677261646561626c653a206d757374206e6f742062652063616c60448201527f6c6564207468726f7567682064656c656761746563616c6c00000000000000006064820152608401610448565b50600080516020611c4083398151915290565b610934610e8c565b610975848484848080601f016020809104026020016040519081016040528093929190818152602001838380828437600092019190915250610f1f92505050565b50505050565b6040516370a0823160e01b81523060048201526000906001600160a01b037f000000000000000000000000000000000000000000000000000000000000000016906370a08231906024015b602060405180830381865afa1580156109e3573d6000803e3d6000fd5b505050506040513d601f19601f82011682018060405250810190610a079190611b9d565b905090565b600054610100900460ff1615808015610a2c5750600054600160ff909116105b80610a465750303b158015610a46575060005460ff166001145b610aa95760405162461bcd60e51b815260206004820152602e60248201527f496e697469616c697a61626c653a20636f6e747261637420697320616c72656160448201526d191e481a5b9a5d1a585b1a5e995960921b6064820152608401610448565b6000805460ff191660011790558015610acc576000805461ff0019166101001790555b610ad582610fe6565b8015610875576000805461ff0019169055604051600181527f7f26b83ff96e1f2b6a682f133852f6798a09c465da95921460cefb38474024989060200160405180910390a15050565b604051631aab3f0d60e11b8152306004820152600060248201819052906001600160a01b037f000000000000000000000000000000000000000000000000000000000000000016906335567e1a906044016109c6565b6104e5610f8f565b7f4910fdfa16fed3260ed0e7147f7cc6da11a60208b5b9406d12a635614ffd91435460ff1615610bb457610baf83611062565b505050565b826001600160a01b03166352d1902d6040518163ffffffff1660e01b8152600401602060405180830381865afa925050508015610c0e575060408051601f3d908101601f19168201909252610c0b91810190611b9d565b60015b610c715760405162461bcd60e51b815260206004820152602e60248201527f45524331393637557067726164653a206e657720696d706c656d656e7461746960448201526d6f6e206973206e6f74205555505360901b6064820152608401610448565b600080516020611c408339815191528114610ce05760405162461bcd60e51b815260206004820152602960248201527f45524331393637557067726164653a20756e737570706f727465642070726f786044820152681a58589b195555525160ba1b6064820152608401610448565b50610baf8383836110fe565b336001600160a01b037f00000000000000000000000000000000000000000000000000000000000000001614610d645760405162461bcd60e51b815260206004820152601c60248201527f6163636f756e743a206e6f742066726f6d20456e747279506f696e74000000006044820152606401610448565b565b600080610dc0836040517f19457468657265756d205369676e6564204d6573736167653a0a3332000000006020820152603c8101829052600090605c01604051602081830303815290604052805190602001209050919050565b9050610e10610dd3610140860186611b2f565b8080601f01602080910402602001604051908101604052809392919081815260200183838082843760009201919091525085939250506111239050565b6000546201000090046001600160a01b03908116911614610e355760019150506103fa565b5060009392505050565b80156104e557604051600090339060001990849084818181858888f193505050503d8060008114610719576040519150601f19603f3d011682016040523d82523d6000602084013e610719565b336001600160a01b037f0000000000000000000000000000000000000000000000000000000000000000161480610ed357506000546201000090046001600160a01b031633145b610d645760405162461bcd60e51b815260206004820181905260248201527f6163636f756e743a206e6f74204f776e6572206f7220456e747279506f696e746044820152606401610448565b600080846001600160a01b03168484604051610f3b9190611bda565b60006040518083038185875af1925050503d8060008114610f78576040519150601f19603f3d011682016040523d82523d6000602084013e610f7d565b606091505b50915091508161071957805160208201fd5b6000546201000090046001600160a01b0316331480610fad57503330145b610d645760405162461bcd60e51b815260206004820152600a60248201526937b7363c9037bbb732b960b11b6044820152606401610448565b6000805462010000600160b01b031916620100006001600160a01b038481168202929092178084556040519190048216927f0000000000000000000000000000000000000000000000000000000000000000909216917f47e55c76e7a6f1fd8996a1da8008c1ea29699cca35e7bcd057f2dec313b6e5de91a350565b6001600160a01b0381163b6110cf5760405162461bcd60e51b815260206004820152602d60248201527f455243313936373a206e657720696d706c656d656e746174696f6e206973206e60448201526c1bdd08184818dbdb9d1c9858dd609a1b6064820152608401610448565b600080516020611c4083398151915280546001600160a01b0319166001600160a01b0392909216919091179055565b61110783611147565b6000825111806111145750805b15610baf576109758383611187565b600080600061113285856111ac565b9150915061113f816111f1565b509392505050565b61115081611062565b6040516001600160a01b038216907fbc7cd75a20ee27fd9adebab32041f755214dbc6bffa90cc0225b39da2e5c2d3b90600090a250565b60606105078383604051806060016040528060278152602001611c606027913961133b565b60008082516041036111e25760208301516040840151606085015160001a6111d6878285856113b3565b945094505050506111ea565b506000905060025b9250929050565b600081600481111561120557611205611bf6565b0361120d5750565b600181600481111561122157611221611bf6565b0361126e5760405162461bcd60e51b815260206004820152601860248201527f45434453413a20696e76616c6964207369676e617475726500000000000000006044820152606401610448565b600281600481111561128257611282611bf6565b036112cf5760405162461bcd60e51b815260206004820152601f60248201527f45434453413a20696e76616c6964207369676e6174757265206c656e677468006044820152606401610448565b60038160048111156112e3576112e3611bf6565b036104e55760405162461bcd60e51b815260206004820152602260248201527f45434453413a20696e76616c6964207369676e6174757265202773272076616c604482015261756560f01b6064820152608401610448565b6060600080856001600160a01b0316856040516113589190611bda565b600060405180830381855af49150503d8060008114611393576040519150601f19603f3d011682016040523d82523d6000602084013e611398565b606091505b50915091506113a986838387611477565b9695505050505050565b6000807f7fffffffffffffffffffffffffffffff5d576e7357a4501ddfe92f46681b20a08311156113ea575060009050600361146e565b6040805160008082526020820180845289905260ff881692820192909252606081018690526080810185905260019060a0016020604051602081039080840390855afa15801561143e573d6000803e3d6000fd5b5050604051601f1901519150506001600160a01b0381166114675760006001925092505061146e565b9150600090505b94509492505050565b606083156114e65782516000036114df576001600160a01b0385163b6114df5760405162461bcd60e51b815260206004820152601d60248201527f416464726573733a2063616c6c20746f206e6f6e2d636f6e74726163740000006044820152606401610448565b50816114f0565b6114f083836114f8565b949350505050565b8151156115085781518083602001fd5b8060405162461bcd60e51b81526004016104489190611c0c565b6001600160a01b03811681146104e557600080fd5b60008083601f84011261154957600080fd5b50813567ffffffffffffffff81111561156157600080fd5b6020830191508360208285010111156111ea57600080fd5b60008060008060008060008060c0898b03121561159557600080fd5b88356115a081611522565b975060208901356115b081611522565b965060408901356115c081611522565b955060608901359450608089013567ffffffffffffffff808211156115e457600080fd5b6115f08c838d01611537565b909650945060a08b013591508082111561160957600080fd5b506116168b828c01611537565b999c989b5096995094979396929594505050565b60006020828403121561163c57600080fd5b81356001600160e01b03198116811461050757600080fd5b60008060008060006080868803121561166c57600080fd5b853561167781611522565b9450602086013561168781611522565b935060408601359250606086013567ffffffffffffffff8111156116aa57600080fd5b6116b688828901611537565b969995985093965092949392505050565b6000602082840312156116d957600080fd5b813561050781611522565b6000806000606084860312156116f957600080fd5b833567ffffffffffffffff81111561171057600080fd5b8401610160818703121561172357600080fd5b95602085013595506040909401359392505050565b60008083601f84011261174a57600080fd5b50813567ffffffffffffffff81111561176257600080fd5b6020830191508360208260051b85010111156111ea57600080fd5b6000806000806000806060878903121561179657600080fd5b863567ffffffffffffffff808211156117ae57600080fd5b6117ba8a838b01611738565b909850965060208901359150808211156117d357600080fd5b6117df8a838b01611738565b909650945060408901359150808211156117f857600080fd5b5061180589828a01611738565b979a9699509497509295939492505050565b6000806040838503121561182a57600080fd5b823561183581611522565b946020939093013593505050565b634e487b7160e01b600052604160045260246000fd5b6000806040838503121561186c57600080fd5b823561187781611522565b9150602083013567ffffffffffffffff8082111561189457600080fd5b818501915085601f8301126118a857600080fd5b8135818111156118ba576118ba611843565b604051601f8201601f19908116603f011681019083821181831017156118e2576118e2611843565b816040528281528860208487010111156118fb57600080fd5b8260208601602083013760006020848301015280955050505050509250929050565b6000806000806060858703121561193357600080fd5b843561193e81611522565b935060208501359250604085013567ffffffffffffffff81111561196157600080fd5b61196d87828801611537565b95989497509550505050565b60008060008060008060008060a0898b03121561199557600080fd5b88356119a081611522565b975060208901356119b081611522565b9650604089013567ffffffffffffffff808211156119cd57600080fd5b6119d98c838d01611738565b909850965060608b01359150808211156119f257600080fd5b6119fe8c838d01611738565b909650945060808b013591508082111561160957600080fd5b60008060008060008060a08789031215611a3057600080fd5b8635611a3b81611522565b95506020870135611a4b81611522565b94506040870135935060608701359250608087013567ffffffffffffffff811115611a7557600080fd5b61180589828a01611537565b6020808252602c908201527f46756e6374696f6e206d7573742062652063616c6c6564207468726f7567682060408201526b19195b1959d85d1958d85b1b60a21b606082015260800190565b6020808252602c908201527f46756e6374696f6e206d7573742062652063616c6c6564207468726f7567682060408201526b6163746976652070726f787960a01b606082015260800190565b634e487b7160e01b600052603260045260246000fd5b6000808335601e19843603018112611b4657600080fd5b83018035915067ffffffffffffffff821115611b6157600080fd5b6020019150368190038213156111ea57600080fd5b600060018201611b9657634e487b7160e01b600052601160045260246000fd5b5060010190565b600060208284031215611baf57600080fd5b5051919050565b60005b83811015611bd1578181015183820152602001611bb9565b50506000910152565b60008251611bec818460208701611bb6565b9190910192915050565b634e487b7160e01b600052602160045260246000fd5b6020815260008251806020840152611c2b816040850160208701611bb6565b601f01601f1916919091016040019291505056fe360894a13ba1a3210667c828492db98dca3e2076cc3735a920a3ca505d382bbc416464726573733a206c6f772d6c6576656c2064656c65676174652063616c6c206661696c6564a264697066735822122093256db0bca1cf90b6a6136f95bf6206a161e19d27adec0d122654245e50eb2f64736f6c63430008110033",
    "linkReferences": {}
  },
  "methodIdentifiers": {
    "accountImplementation()": "11464fbe",
    "createAccount(address,uint256)": "5fbfb9cf",
    "getAddress(address,uint256)": "8cb84e18"
  },
  "id": 18
}