{
  "abi": [
    {
      "inputs": [
        {
          "internalType": "contract IEntryPoint",
          "name": "_entryPoint",
          "type": "address"
        },
        {
          "internalType": "address",
          "name": "_verifyingSigner",
          "type": "address"
        }
      ],
      "stateMutability": "nonpayable",
      "type": "constructor"
    },
    {
      "anonymous": false,
      "inputs": [
        {
          "indexed": true,
          "internalType": "address",
          "name": "previousOwner",
          "type": "address"
        },
        {
          "indexed": true,
          "internalType": "address",
          "name": "newOwner",
          "type": "address"
        }
      ],
      "name": "OwnershipTransferred",
      "type": "event"
    },
    {
      "inputs": [
        {
          "internalType": "uint32",
          "name": "unstakeDelaySec",
          "type": "uint32"
        }
      ],
      "name": "addStake",
      "outputs": [],
      "stateMutability": "payable",
      "type": "function"
    },
    {
      "inputs": [],
      "name": "deposit",
      "outputs": [],
      "stateMutability": "payable",
      "type": "function"
    },
    {
      "inputs": [],
      "name": "entryPoint",
      "outputs": [
        {
          "internalType": "contract IEntryPoint",
          "name": "",
          "type": "address"
        }
      ],
      "stateMutability": "view",
      "type": "function"
    },
    {
      "inputs": [],
      "name": "getDeposit",
      "outputs": [
        {
          "internalType": "uint256",
          "name": "",
          "type": "uint256"
        }
      ],
      "stateMutability": "view",
      "type": "function"
    },
    {
      "inputs": [
        {
          "components": [
            {
              "internalType": "address",
              "name": "sender",
              "type": "address"
            },
            {
              "internalType": "uint256",
              "name": "nonce",
              "type": "uint256"
            },
            {
              "internalType": "bytes",
              "name": "initCode",
              "type": "bytes"
            },
            {
              "internalType": "bytes",
              "name": "callData",
              "type": "bytes"
            },
            {
              "internalType": "uint256",
              "name": "callGasLimit",
              "type": "uint256"
            },
            {
              "internalType": "uint256",
              "name": "verificationGasLimit",
              "type": "uint256"
            },
            {
              "internalType": "uint256",
              "name": "preVerificationGas",
              "type": "uint256"
            },
            {
              "internalType": "uint256",
              "name": "maxFeePerGas",
              "type": "uint256"
            },
            {
              "internalType": "uint256",
              "name": "maxPriorityFeePerGas",
              "type": "uint256"
            },
            {
              "internalType": "bytes",
              "name": "paymasterAndData",
              "type": "bytes"
            },
            {
              "internalType": "bytes",
              "name": "signature",
              "type": "bytes"
            }
          ],
          "internalType": "struct UserOperation",
          "name": "userOp",
          "type": "tuple"
        },
        {
          "internalType": "uint48",
          "name": "validUntil",
          "type": "uint48"
        },
        {
          "internalType": "uint48",
          "name": "validAfter",
          "type": "uint48"
        }
      ],
      "name": "getHash",
      "outputs": [
        {
          "internalType": "bytes32",
          "name": "",
          "type": "bytes32"
        }
      ],
      "stateMutability": "view",
      "type": "function"
    },
    {
      "inputs": [],
      "name": "owner",
      "outputs": [
        {
          "internalType": "address",
          "name": "",
          "type": "address"
        }
      ],
      "stateMutability": "view",
      "type": "function"
    },
    {
      "inputs": [
        {
          "internalType": "bytes",
          "name": "paymasterAndData",
          "type": "bytes"
        }
      ],
      "name": "parsePaymasterAndData",
      "outputs": [
        {
          "internalType": "uint48",
          "name": "validUntil",
          "type": "uint48"
        },
        {
          "internalType": "uint48",
          "name": "validAfter",
          "type": "uint48"
        },
        {
          "internalType": "bytes",
          "name": "signature",
          "type": "bytes"
        }
      ],
      "stateMutability": "pure",
      "type": "function"
    },
    {
      "inputs": [
        {
          "internalType": "enum IPaymaster.PostOpMode",
          "name": "mode",
          "type": "uint8"
        },
        {
          "internalType": "bytes",
          "name": "context",
          "type": "bytes"
        },
        {
          "internalType": "uint256",
          "name": "actualGasCost",
          "type": "uint256"
        }
      ],
      "name": "postOp",
      "outputs": [],
      "stateMutability": "nonpayable",
      "type": "function"
    },
    {
      "inputs": [],
      "name": "renounceOwnership",
      "outputs": [],
      "stateMutability": "nonpayable",
      "type": "function"
    },
    {
      "inputs": [
        {
          "internalType": "address",
          "name": "newOwner",
          "type": "address"
        }
      ],
      "name": "transferOwnership",
      "outputs": [],
      "stateMutability": "nonpayable",
      "type": "function"
    },
    {
      "inputs": [],
      "name": "unlockStake",
      "outputs": [],
      "stateMutability": "nonpayable",
      "type": "function"
    },
    {
      "inputs": [
        {
          "components": [
            {
              "internalType": "address",
              "name": "sender",
              "type": "address"
            },
            {
              "internalType": "uint256",
              "name": "nonce",
              "type": "uint256"
            },
            {
              "internalType": "bytes",
              "name": "initCode",
              "type": "bytes"
            },
            {
              "internalType": "bytes",
              "name": "callData",
              "type": "bytes"
            },
            {
              "internalType": "uint256",
              "name": "callGasLimit",
              "type": "uint256"
            },
            {
              "internalType": "uint256",
              "name": "verificationGasLimit",
              "type": "uint256"
            },
            {
              "internalType": "uint256",
              "name": "preVerificationGas",
              "type": "uint256"
            },
            {
              "internalType": "uint256",
              "name": "maxFeePerGas",
              "type": "uint256"
            },
            {
              "internalType": "uint256",
              "name": "maxPriorityFeePerGas",
              "type": "uint256"
            },
            {
              "internalType": "bytes",
              "name": "paymasterAndData",
              "type": "bytes"
            },
            {
              "internalType": "bytes",
              "name": "signature",
              "type": "bytes"
            }
          ],
          "internalType": "struct UserOperation",
          "name": "userOp",
          "type": "tuple"
        },
        {
          "internalType": "bytes32",
          "name": "userOpHash",
          "type": "bytes32"
        },
        {
          "internalType": "uint256",
          "name": "maxCost",
          "type": "uint256"
        }
      ],
      "name": "validatePaymasterUserOp",
      "outputs": [
        {
          "internalType": "bytes",
          "name": "context",
          "type": "bytes"
        },
        {
          "internalType": "uint256",
          "name": "validationData",
          "type": "uint256"
        }
      ],
      "stateMutability": "nonpayable",
      "type": "function"
    },
    {
      "inputs": [],
      "name": "verifyingSigner",
      "outputs": [
        {
          "internalType": "address",
          "name": "",
          "type": "address"
        }
      ],
      "stateMutability": "view",
      "type": "function"
    },
    {
      "inputs": [
        {
          "internalType": "address payable",
          "name": "withdrawAddress",
          "type": "address"
        }
      ],
      "name": "withdrawStake",
      "outputs": [],
      "stateMutability": "nonpayable",
      "type": "function"
    },
    {
      "inputs": [
        {
          "internalType": "address payable",
          "name": "withdrawAddress",
          "type": "address"
        },
        {
          "internalType": "uint256",
          "name": "amount",
          "type": "uint256"
        }
      ],
      "name": "withdrawTo",
      "outputs": [],
      "stateMutability": "nonpayable",
      "type": "function"
    }
  ],
  "bytecode": {
    "object": "0x60c060405234801561001057600080fd5b5060405161132038038061132083398101604081905261002f916100b9565b8161003933610051565b6001600160a01b039081166080521660a052506100f3565b600080546001600160a01b038381166001600160a01b0319831681178455604051919092169283917f8be0079c531659141344cd1fd0a4f28419497f9722a3daafe3b4186f6b6457e09190a35050565b6001600160a01b03811681146100b657600080fd5b50565b600080604083850312156100cc57600080fd5b82516100d7816100a1565b60208401519092506100e8816100a1565b809150509250929050565b60805160a0516111d0610150600039600081816101340152610a950152600081816102360152818161031a015281816103b101528181610566015281816105fa01528181610671015281816106fe01526108a201526111d06000f3fe6080604052600436106100e85760003560e01c8063a9a234091161008a578063c399ec8811610059578063c399ec881461028d578063d0e30db0146102a2578063f2fde38b146102aa578063f465c77e146102ca57600080fd5b8063a9a2340914610204578063b0d691fe14610224578063bb9fe6bf14610258578063c23a5cea1461026d57600080fd5b8063715018a6116100c6578063715018a6146101735780638da5cb5b1461018857806394d4ad60146101a657806394e1fc19146101d657600080fd5b80630396cb60146100ed578063205c28781461010257806323d9ac9b14610122575b600080fd5b6101006100fb366004610dc7565b6102f8565b005b34801561010e57600080fd5b5061010061011d366004610e09565b610383565b34801561012e57600080fd5b506101567f000000000000000000000000000000000000000000000000000000000000000081565b6040516001600160a01b0390911681526020015b60405180910390f35b34801561017f57600080fd5b506101006103f5565b34801561019457600080fd5b506000546001600160a01b0316610156565b3480156101b257600080fd5b506101c66101c1366004610e77565b610409565b60405161016a9493929190610eb9565b3480156101e257600080fd5b506101f66101f1366004610f39565b610446565b60405190815260200161016a565b34801561021057600080fd5b5061010061021f366004610f97565b610542565b34801561023057600080fd5b506101567f000000000000000000000000000000000000000000000000000000000000000081565b34801561026457600080fd5b5061010061055c565b34801561027957600080fd5b50610100610288366004610ff7565b6105d3565b34801561029957600080fd5b506101f6610659565b6101006106e9565b3480156102b657600080fd5b506101006102c5366004610ff7565b61074b565b3480156102d657600080fd5b506102ea6102e5366004611014565b6107c9565b60405161016a929190611062565b6103006107ed565b604051621cb65b60e51b815263ffffffff821660048201527f00000000000000000000000000000000000000000000000000000000000000006001600160a01b031690630396cb609034906024016000604051808303818588803b15801561036757600080fd5b505af115801561037b573d6000803e3d6000fd5b505050505050565b61038b6107ed565b60405163040b850f60e31b81526001600160a01b038381166004830152602482018390527f0000000000000000000000000000000000000000000000000000000000000000169063205c287890604401600060405180830381600087803b15801561036757600080fd5b6103fd6107ed565b6104076000610847565b565b600080368161041c6054601487896110b7565b81019061042991906110e1565b909450925061043b85605481896110b7565b949793965094505050565b6000833580602086013561045d6040880188611114565b60405161046b92919061115b565b6040519081900390206104816060890189611114565b60405161048f92919061115b565b604080519182900382206001600160a01b03909516602083015281019290925260608201526080808201929092529086013560a08083019190915286013560c08083019190915286013560e08083019190915286013561010080830191909152860135610120820152466101408201523061016082015265ffffffffffff80861661018083015284166101a08201526101c001604051602081830303815290604052805190602001209150509392505050565b61054a610897565b61055684848484610907565b50505050565b6105646107ed565b7f00000000000000000000000000000000000000000000000000000000000000006001600160a01b031663bb9fe6bf6040518163ffffffff1660e01b8152600401600060405180830381600087803b1580156105bf57600080fd5b505af1158015610556573d6000803e3d6000fd5b6105db6107ed565b60405163611d2e7560e11b81526001600160a01b0382811660048301527f0000000000000000000000000000000000000000000000000000000000000000169063c23a5cea90602401600060405180830381600087803b15801561063e57600080fd5b505af1158015610652573d6000803e3d6000fd5b5050505050565b6040516370a0823160e01b81523060048201526000907f00000000000000000000000000000000000000000000000000000000000000006001600160a01b0316906370a0823190602401602060405180830381865afa1580156106c0573d6000803e3d6000fd5b505050506040513d601f19601f820116820180604052508101906106e4919061116b565b905090565b60405163b760faf960e01b81523060048201527f00000000000000000000000000000000000000000000000000000000000000006001600160a01b03169063b760faf99034906024016000604051808303818588803b15801561063e57600080fd5b6107536107ed565b6001600160a01b0381166107bd5760405162461bcd60e51b815260206004820152602660248201527f4f776e61626c653a206e6577206f776e657220697320746865207a65726f206160448201526564647265737360d01b60648201526084015b60405180910390fd5b6107c681610847565b50565b606060006107d5610897565b6107e085858561093f565b915091505b935093915050565b6000546001600160a01b031633146104075760405162461bcd60e51b815260206004820181905260248201527f4f776e61626c653a2063616c6c6572206973206e6f7420746865206f776e657260448201526064016107b4565b600080546001600160a01b038381166001600160a01b0319831681178455604051919092169283917f8be0079c531659141344cd1fd0a4f28419497f9722a3daafe3b4186f6b6457e09190a35050565b336001600160a01b037f000000000000000000000000000000000000000000000000000000000000000016146104075760405162461bcd60e51b815260206004820152601560248201527414d95b99195c881b9bdd08115b9d1c9e541bda5b9d605a1b60448201526064016107b4565b60405162461bcd60e51b815260206004820152600d60248201526c6d757374206f7665727269646560981b60448201526064016107b4565b60606000808036816109586101c16101208b018b611114565b9296509094509250905060408114806109715750604181145b6109e5576040805162461bcd60e51b81526020600482015260248101919091527f566572696679696e675061796d61737465723a20696e76616c6964207369676e60448201527f6174757265206c656e67746820696e207061796d6173746572416e644461746160648201526084016107b4565b6000610a486109f58b8787610446565b6040517f19457468657265756d205369676e6564204d6573736167653a0a3332000000006020820152603c8101829052600090605c01604051602081830303815290604052805190602001209050919050565b9050610a8a8184848080601f016020809104026020016040519081016040528093929190818152602001838380828437600092019190915250610b1892505050565b6001600160a01b03167f00000000000000000000000000000000000000000000000000000000000000006001600160a01b031614610aed57610ace60018686610b3c565b60405180602001604052806000815250909650965050505050506107e5565b610af960008686610b3c565b6040805160208101909152600081529b909a5098505050505050505050565b6000806000610b278585610b74565b91509150610b3481610bb9565b509392505050565b600060d08265ffffffffffff16901b60a08465ffffffffffff16901b85610b64576000610b67565b60015b60ff161717949350505050565b6000808251604103610baa5760208301516040840151606085015160001a610b9e87828585610d03565b94509450505050610bb2565b506000905060025b9250929050565b6000816004811115610bcd57610bcd611184565b03610bd55750565b6001816004811115610be957610be9611184565b03610c365760405162461bcd60e51b815260206004820152601860248201527f45434453413a20696e76616c6964207369676e6174757265000000000000000060448201526064016107b4565b6002816004811115610c4a57610c4a611184565b03610c975760405162461bcd60e51b815260206004820152601f60248201527f45434453413a20696e76616c6964207369676e6174757265206c656e6774680060448201526064016107b4565b6003816004811115610cab57610cab611184565b036107c65760405162461bcd60e51b815260206004820152602260248201527f45434453413a20696e76616c6964207369676e6174757265202773272076616c604482015261756560f01b60648201526084016107b4565b6000807f7fffffffffffffffffffffffffffffff5d576e7357a4501ddfe92f46681b20a0831115610d3a5750600090506003610dbe565b6040805160008082526020820180845289905260ff881692820192909252606081018690526080810185905260019060a0016020604051602081039080840390855afa158015610d8e573d6000803e3d6000fd5b5050604051601f1901519150506001600160a01b038116610db757600060019250925050610dbe565b9150600090505b94509492505050565b600060208284031215610dd957600080fd5b813563ffffffff81168114610ded57600080fd5b9392505050565b6001600160a01b03811681146107c657600080fd5b60008060408385031215610e1c57600080fd5b8235610e2781610df4565b946020939093013593505050565b60008083601f840112610e4757600080fd5b50813567ffffffffffffffff811115610e5f57600080fd5b602083019150836020828501011115610bb257600080fd5b60008060208385031215610e8a57600080fd5b823567ffffffffffffffff811115610ea157600080fd5b610ead85828601610e35565b90969095509350505050565b600065ffffffffffff808716835280861660208401525060606040830152826060830152828460808401376000608084840101526080601f19601f850116830101905095945050505050565b60006101608284031215610f1857600080fd5b50919050565b803565ffffffffffff81168114610f3457600080fd5b919050565b600080600060608486031215610f4e57600080fd5b833567ffffffffffffffff811115610f6557600080fd5b610f7186828701610f05565b935050610f8060208501610f1e565b9150610f8e60408501610f1e565b90509250925092565b60008060008060608587031215610fad57600080fd5b843560038110610fbc57600080fd5b9350602085013567ffffffffffffffff811115610fd857600080fd5b610fe487828801610e35565b9598909750949560400135949350505050565b60006020828403121561100957600080fd5b8135610ded81610df4565b60008060006060848603121561102957600080fd5b833567ffffffffffffffff81111561104057600080fd5b61104c86828701610f05565b9660208601359650604090950135949350505050565b604081526000835180604084015260005b818110156110905760208187018101516060868401015201611073565b506000606082850101526060601f19601f8301168401019150508260208301529392505050565b600080858511156110c757600080fd5b838611156110d457600080fd5b5050820193919092039150565b600080604083850312156110f457600080fd5b6110fd83610f1e565b915061110b60208401610f1e565b90509250929050565b6000808335601e1984360301811261112b57600080fd5b83018035915067ffffffffffffffff82111561114657600080fd5b602001915036819003821315610bb257600080fd5b8183823760009101908152919050565b60006020828403121561117d57600080fd5b5051919050565b634e487b7160e01b600052602160045260246000fdfea264697066735822122025f366c172a09a80b3417be627d850f3d6654d2dc3077409d57420af712b3e1d64736f6c63430008110033",
    "linkReferences": {}
  },
  "methodIdentifiers": {
    "addStake(uint32)": "0396cb60",
    "deposit()": "d0e30db0",
    "entryPoint()": "b0d691fe",
    "getDeposit()": "c399ec88",
    "getHash((address,uint256,bytes,bytes,uint256,uint256,uint256,uint256,uint256,bytes,bytes),uint48,uint48)": "94e1fc19",
    "owner()": "8da5cb5b",
    "parsePaymasterAndData(bytes)": "94d4ad60",
    "postOp(uint8,bytes,uint256)": "a9a23409",
    "renounceOwnership()": "715018a6",
    "transferOwnership(address)": "f2fde38b",
    "unlockStake()": "bb9fe6bf",
    "validatePaymasterUserOp((address,uint256,bytes,bytes,uint256,uint256,uint256,uint256,uint256,bytes,bytes),bytes32,uint256)": "f465c77e",
    "verifyingSigner()": "23d9ac9b",
    "withdrawStake(address)": "c23a5cea",
    "withdrawTo(address,uint256)": "205c2878"
  },
  "id": 20
}